{
  "contractName": "Escrow",
  "abi": [
    {
      "constant": true,
      "inputs": [],
      "name": "seller",
      "outputs": [
        {
          "name": "",
          "type": "address"
        }
      ],
      "payable": false,
      "stateMutability": "view",
      "type": "function"
    },
    {
      "constant": true,
      "inputs": [],
      "name": "buyer",
      "outputs": [
        {
          "name": "",
          "type": "address"
        }
      ],
      "payable": false,
      "stateMutability": "view",
      "type": "function"
    },
    {
      "inputs": [
        {
          "name": "buyer_address",
          "type": "address"
        },
        {
          "name": "seller_address",
          "type": "address"
        }
      ],
      "payable": false,
      "stateMutability": "nonpayable",
      "type": "constructor"
    },
    {
      "constant": false,
      "inputs": [],
      "name": "testReturn",
      "outputs": [
        {
          "name": "",
          "type": "string"
        }
      ],
      "payable": false,
      "stateMutability": "nonpayable",
      "type": "function"
    },
    {
      "constant": false,
      "inputs": [],
      "name": "accept",
      "outputs": [],
      "payable": false,
      "stateMutability": "nonpayable",
      "type": "function"
    },
    {
      "constant": false,
      "inputs": [],
      "name": "deposit",
      "outputs": [],
      "payable": true,
      "stateMutability": "payable",
      "type": "function"
    },
    {
      "constant": false,
      "inputs": [],
      "name": "cancel",
      "outputs": [],
      "payable": false,
      "stateMutability": "nonpayable",
      "type": "function"
    },
    {
      "constant": true,
      "inputs": [],
      "name": "kill",
      "outputs": [],
      "payable": false,
      "stateMutability": "view",
      "type": "function"
    }
  ],
  "bytecode": "0x608060405234801561001057600080fd5b506040516040806108e5833981018060405281019080805190602001909291908051906020019092919050505081600160006101000a81548173ffffffffffffffffffffffffffffffffffffffff021916908373ffffffffffffffffffffffffffffffffffffffff16021790555080600260006101000a81548173ffffffffffffffffffffffffffffffffffffffff021916908373ffffffffffffffffffffffffffffffffffffffff16021790555033600360006101000a81548173ffffffffffffffffffffffffffffffffffffffff021916908373ffffffffffffffffffffffffffffffffffffffff1602179055504260048190555050506107cd806101186000396000f300608060405260043610610083576000357c0100000000000000000000000000000000000000000000000000000000900463ffffffff16806308551a53146100885780632852b71c146100df57806341c0e1b5146100f65780637150d8ae1461010d578063d0e30db014610164578063e13a77161461016e578063ea8a1af0146101fe575b600080fd5b34801561009457600080fd5b5061009d610215565b604051808273ffffffffffffffffffffffffffffffffffffffff1673ffffffffffffffffffffffffffffffffffffffff16815260200191505060405180910390f35b3480156100eb57600080fd5b506100f461023b565b005b34801561010257600080fd5b5061010b6103dc565b005b34801561011957600080fd5b5061012261046f565b604051808273ffffffffffffffffffffffffffffffffffffffff1673ffffffffffffffffffffffffffffffffffffffff16815260200191505060405180910390f35b61016c610495565b005b34801561017a57600080fd5b506101836104fd565b6040518080602001828103825283818151815260200191508051906020019080838360005b838110156101c35780820151818401526020810190506101a8565b50505050905090810190601f1680156101f05780820380516001836020036101000a031916815260200191505b509250505060405180910390f35b34801561020a57600080fd5b5061021361053a565b005b600260009054906101000a900473ffffffffffffffffffffffffffffffffffffffff1681565b600160009054906101000a900473ffffffffffffffffffffffffffffffffffffffff1673ffffffffffffffffffffffffffffffffffffffff163373ffffffffffffffffffffffffffffffffffffffff1614156102b1576001600560006101000a81548160ff021916908315150217905550610324565b600260009054906101000a900473ffffffffffffffffffffffffffffffffffffffff1673ffffffffffffffffffffffffffffffffffffffff163373ffffffffffffffffffffffffffffffffffffffff161415610323576001600560016101000a81548160ff0219169083151502179055505b5b600560009054906101000a900460ff16801561034c5750600560019054906101000a900460ff165b1561035e5761035961068f565b6103da565b600560009054906101000a900460ff1680156103875750600560019054906101000a900460ff16155b8015610399575062278d006004540142115b156103d957600160009054906101000a900473ffffffffffffffffffffffffffffffffffffffff1673ffffffffffffffffffffffffffffffffffffffff16ff5b5b565b600360009054906101000a900473ffffffffffffffffffffffffffffffffffffffff1673ffffffffffffffffffffffffffffffffffffffff163373ffffffffffffffffffffffffffffffffffffffff16141561046d57600160009054906101000a900473ffffffffffffffffffffffffffffffffffffffff1673ffffffffffffffffffffffffffffffffffffffff16ff5b565b600160009054906101000a900473ffffffffffffffffffffffffffffffffffffffff1681565b600160009054906101000a900473ffffffffffffffffffffffffffffffffffffffff1673ffffffffffffffffffffffffffffffffffffffff163373ffffffffffffffffffffffffffffffffffffffff1614156104fb573460008082825401925050819055505b565b60606040805190810160405280601b81526020017f52657475726e207465737420696e666f20746f20636f6e736f6c650000000000815250905090565b600160009054906101000a900473ffffffffffffffffffffffffffffffffffffffff1673ffffffffffffffffffffffffffffffffffffffff163373ffffffffffffffffffffffffffffffffffffffff1614156105b0576000600560006101000a81548160ff021916908315150217905550610623565b600260009054906101000a900473ffffffffffffffffffffffffffffffffffffffff1673ffffffffffffffffffffffffffffffffffffffff163373ffffffffffffffffffffffffffffffffffffffff161415610622576000600560016101000a81548160ff0219169083151502179055505b5b600560009054906101000a900460ff1615801561064d5750600560019054906101000a900460ff16155b1561068d57600160009054906101000a900473ffffffffffffffffffffffffffffffffffffffff1673ffffffffffffffffffffffffffffffffffffffff16ff5b565b600360009054906101000a900473ffffffffffffffffffffffffffffffffffffffff1673ffffffffffffffffffffffffffffffffffffffff166108fc60643073ffffffffffffffffffffffffffffffffffffffff16318115156106ee57fe5b049081150290604051600060405180830381858888f1935050505015801561071a573d6000803e3d6000fd5b50600260009054906101000a900473ffffffffffffffffffffffffffffffffffffffff1673ffffffffffffffffffffffffffffffffffffffff166108fc3073ffffffffffffffffffffffffffffffffffffffff16319081150290604051600060405180830381858888f193505050501561079a576000808190555061079f565b600080fd5b5600a165627a7a72305820346b1fc6f692b0c5f10393072d34d0db87087f0f4cf8d376f609d7a3f19a6be40029",
  "source": "pragma solidity ^0.4.23;\n\ncontract Escrow {\n    uint balance;\n    address public buyer;\n    address public seller;\n    address private escrow;\n    uint private start;\n    bool buyerOk;\n    bool sellerOk;\n\nconstructor(address buyer_address, address seller_address) public {\n        buyer = buyer_address;\n        seller = seller_address;\n        escrow = msg.sender;\n        start = now;\n    }\n\n    function testReturn() public returns (string) {\n      return 'Return test info to console';\n    }\n\n    function accept() public {\n        if (msg.sender == buyer){\n            buyerOk = true;\n        } else if (msg.sender == seller){\n            sellerOk = true;\n        }\n        if (buyerOk && sellerOk){\n            payBalance();\n        } else if (buyerOk && !sellerOk && now > start + 30 days) {\n            // Freeze 30 days before release to buyer. The customer has to remember to call this method after freeze period.\n            selfdestruct(buyer);\n        }\n    }\n\n    function payBalance() private {\n        // we are sending ourselves (contract creator) a fee\n        escrow.transfer(this.balance / 100);\n        // send seller the balance\n        if (seller.send(this.balance)) {\n            balance = 0;\n        } else {\n            throw;\n        }\n    }\n\n    function deposit() public payable {\n        if (msg.sender == buyer) {\n            balance += msg.value;\n        }\n    }\n\n    function cancel() public {\n        if (msg.sender == buyer){\n            buyerOk = false;\n        } else if (msg.sender == seller){\n            sellerOk = false;\n        }\n        // if both buyer and seller would like to cancel, money is returned to buyer\n        if (!buyerOk && !sellerOk){\n            selfdestruct(buyer);\n        }\n    }\n\n    function kill() public constant {\n        if (msg.sender == escrow) {\n            selfdestruct(buyer);\n        }\n    }\n}\n",
  "sourcePath": "/Users/allar-alexeyalexandrovich/31.10.18/truffle/contracts/Escrow.sol",
  "compiler": {
    "name": "solc",
    "version": "0.4.24+commit.e67f0147.Emscripten.clang"
  },
  "schemaVersion": "2.0.1",
  "updatedAt": "2018-11-07T13:02:13.891Z"
}