{
  "contractName": "Escrow",
  "abi": [
    {
      "constant": true,
      "inputs": [],
      "name": "seller",
      "outputs": [
        {
          "name": "",
          "type": "address"
        }
      ],
      "payable": false,
      "stateMutability": "view",
      "type": "function"
    },
    {
      "constant": true,
      "inputs": [],
      "name": "buyer",
      "outputs": [
        {
          "name": "",
          "type": "address"
        }
      ],
      "payable": false,
      "stateMutability": "view",
      "type": "function"
    },
    {
      "inputs": [
        {
          "name": "buyer_address",
          "type": "address"
        },
        {
          "name": "seller_address",
          "type": "address"
        }
      ],
      "payable": false,
      "stateMutability": "nonpayable",
      "type": "constructor"
    },
    {
      "constant": false,
      "inputs": [],
      "name": "accept",
      "outputs": [],
      "payable": false,
      "stateMutability": "nonpayable",
      "type": "function"
    },
    {
      "constant": false,
      "inputs": [],
      "name": "deposit",
      "outputs": [],
      "payable": true,
      "stateMutability": "payable",
      "type": "function"
    },
    {
      "constant": false,
      "inputs": [],
      "name": "cancel",
      "outputs": [],
      "payable": false,
      "stateMutability": "nonpayable",
      "type": "function"
    },
    {
      "constant": true,
      "inputs": [],
      "name": "kill",
      "outputs": [],
      "payable": false,
      "stateMutability": "view",
      "type": "function"
    }
  ],
  "bytecode": "0x608060405234801561001057600080fd5b5060405160408061080d833981018060405281019080805190602001909291908051906020019092919050505081600160006101000a81548173ffffffffffffffffffffffffffffffffffffffff021916908373ffffffffffffffffffffffffffffffffffffffff16021790555080600260006101000a81548173ffffffffffffffffffffffffffffffffffffffff021916908373ffffffffffffffffffffffffffffffffffffffff16021790555033600360006101000a81548173ffffffffffffffffffffffffffffffffffffffff021916908373ffffffffffffffffffffffffffffffffffffffff1602179055504260048190555050506106f5806101186000396000f300608060405260043610610078576000357c0100000000000000000000000000000000000000000000000000000000900463ffffffff16806308551a531461007d5780632852b71c146100d457806341c0e1b5146100eb5780637150d8ae14610102578063d0e30db014610159578063ea8a1af014610163575b600080fd5b34801561008957600080fd5b5061009261017a565b604051808273ffffffffffffffffffffffffffffffffffffffff1673ffffffffffffffffffffffffffffffffffffffff16815260200191505060405180910390f35b3480156100e057600080fd5b506100e96101a0565b005b3480156100f757600080fd5b50610100610341565b005b34801561010e57600080fd5b506101176103d4565b604051808273ffffffffffffffffffffffffffffffffffffffff1673ffffffffffffffffffffffffffffffffffffffff16815260200191505060405180910390f35b6101616103fa565b005b34801561016f57600080fd5b50610178610462565b005b600260009054906101000a900473ffffffffffffffffffffffffffffffffffffffff1681565b600160009054906101000a900473ffffffffffffffffffffffffffffffffffffffff1673ffffffffffffffffffffffffffffffffffffffff163373ffffffffffffffffffffffffffffffffffffffff161415610216576001600560006101000a81548160ff021916908315150217905550610289565b600260009054906101000a900473ffffffffffffffffffffffffffffffffffffffff1673ffffffffffffffffffffffffffffffffffffffff163373ffffffffffffffffffffffffffffffffffffffff161415610288576001600560016101000a81548160ff0219169083151502179055505b5b600560009054906101000a900460ff1680156102b15750600560019054906101000a900460ff165b156102c3576102be6105b7565b61033f565b600560009054906101000a900460ff1680156102ec5750600560019054906101000a900460ff16155b80156102fe575062278d006004540142115b1561033e57600160009054906101000a900473ffffffffffffffffffffffffffffffffffffffff1673ffffffffffffffffffffffffffffffffffffffff16ff5b5b565b600360009054906101000a900473ffffffffffffffffffffffffffffffffffffffff1673ffffffffffffffffffffffffffffffffffffffff163373ffffffffffffffffffffffffffffffffffffffff1614156103d257600160009054906101000a900473ffffffffffffffffffffffffffffffffffffffff1673ffffffffffffffffffffffffffffffffffffffff16ff5b565b600160009054906101000a900473ffffffffffffffffffffffffffffffffffffffff1681565b600160009054906101000a900473ffffffffffffffffffffffffffffffffffffffff1673ffffffffffffffffffffffffffffffffffffffff163373ffffffffffffffffffffffffffffffffffffffff161415610460573460008082825401925050819055505b565b600160009054906101000a900473ffffffffffffffffffffffffffffffffffffffff1673ffffffffffffffffffffffffffffffffffffffff163373ffffffffffffffffffffffffffffffffffffffff1614156104d8576000600560006101000a81548160ff02191690831515021790555061054b565b600260009054906101000a900473ffffffffffffffffffffffffffffffffffffffff1673ffffffffffffffffffffffffffffffffffffffff163373ffffffffffffffffffffffffffffffffffffffff16141561054a576000600560016101000a81548160ff0219169083151502179055505b5b600560009054906101000a900460ff161580156105755750600560019054906101000a900460ff16155b156105b557600160009054906101000a900473ffffffffffffffffffffffffffffffffffffffff1673ffffffffffffffffffffffffffffffffffffffff16ff5b565b600360009054906101000a900473ffffffffffffffffffffffffffffffffffffffff1673ffffffffffffffffffffffffffffffffffffffff166108fc60643073ffffffffffffffffffffffffffffffffffffffff163181151561061657fe5b049081150290604051600060405180830381858888f19350505050158015610642573d6000803e3d6000fd5b50600260009054906101000a900473ffffffffffffffffffffffffffffffffffffffff1673ffffffffffffffffffffffffffffffffffffffff166108fc3073ffffffffffffffffffffffffffffffffffffffff16319081150290604051600060405180830381858888f19350505050156106c257600080819055506106c7565b600080fd5b5600a165627a7a72305820661a81109627a2e06310c5e6ee445e3f8136e299d0989c4d6fc9e72fc0d304720029",
  "source": "pragma solidity ^0.4.23;\n\ncontract Escrow {\n    uint balance;\n    address public buyer;\n    address public seller;\n    address private escrow;\n    uint private start;\n    bool buyerOk;\n    bool sellerOk;\n\nconstructor(address buyer_address, address seller_address) public {\n        buyer = buyer_address;\n        seller = seller_address;\n        escrow = msg.sender;\n        start = now;\n  }\n\n    function accept() public {\n        if (msg.sender == buyer){\n            buyerOk = true;\n        } else if (msg.sender == seller){\n            sellerOk = true;\n        }\n        if (buyerOk && sellerOk){\n            payBalance();\n        } else if (buyerOk && !sellerOk && now > start + 30 days) {\n            // Freeze 30 days before release to buyer. The customer has to remember to call this method after freeze period.\n            selfdestruct(buyer);\n        }\n    }\n\n    function payBalance() private {\n        // we are sending ourselves (contract creator) a fee\n        escrow.transfer(this.balance / 100);\n        // send seller the balance\n        if (seller.send(this.balance)) {\n            balance = 0;\n        } else {\n            throw;\n        }\n    }\n\n    function deposit() public payable {\n        if (msg.sender == buyer) {\n            balance += msg.value;\n        }\n    }\n\n    function cancel() public {\n        if (msg.sender == buyer){\n            buyerOk = false;\n        } else if (msg.sender == seller){\n            sellerOk = false;\n        }\n        // if both buyer and seller would like to cancel, money is returned to buyer\n        if (!buyerOk && !sellerOk){\n            selfdestruct(buyer);\n        }\n    }\n\n    function kill() public constant {\n        if (msg.sender == escrow) {\n            selfdestruct(buyer);\n        }\n    }\n}\n",
  "sourcePath": "/Users/allar-alexeyalexandrovich/31.10.18/truffle/contracts/Escrow.sol",
  "compiler": {
    "name": "solc",
    "version": "0.4.24+commit.e67f0147.Emscripten.clang"
  },
  "schemaVersion": "2.0.1",
  "updatedAt": "2018-11-21T12:35:40.129Z"
}